{
  "_format": "hh-sol-artifact-1",
  "contractName": "Crowdfunding",
  "sourceName": "contracts/Crowdfunding.sol",
  "abi": [
    {
      "anonymous": false,
      "inputs": [
        {
          "indexed": false,
          "internalType": "uint256",
          "name": "id",
          "type": "uint256"
        },
        {
          "indexed": false,
          "internalType": "address",
          "name": "owner",
          "type": "address"
        },
        {
          "indexed": false,
          "internalType": "string",
          "name": "title",
          "type": "string"
        },
        {
          "indexed": false,
          "internalType": "uint256",
          "name": "target",
          "type": "uint256"
        },
        {
          "indexed": false,
          "internalType": "uint256",
          "name": "deadline",
          "type": "uint256"
        }
      ],
      "name": "CampaignCreated",
      "type": "event"
    },
    {
      "anonymous": false,
      "inputs": [
        {
          "indexed": false,
          "internalType": "uint256",
          "name": "campaignId",
          "type": "uint256"
        },
        {
          "indexed": false,
          "internalType": "address",
          "name": "donor",
          "type": "address"
        },
        {
          "indexed": false,
          "internalType": "uint256",
          "name": "amount",
          "type": "uint256"
        }
      ],
      "name": "DonationReceived",
      "type": "event"
    },
    {
      "inputs": [],
      "name": "campaignCount",
      "outputs": [
        {
          "internalType": "uint256",
          "name": "",
          "type": "uint256"
        }
      ],
      "stateMutability": "view",
      "type": "function"
    },
    {
      "inputs": [
        {
          "internalType": "uint256",
          "name": "",
          "type": "uint256"
        }
      ],
      "name": "campaigns",
      "outputs": [
        {
          "internalType": "address",
          "name": "owner",
          "type": "address"
        },
        {
          "internalType": "string",
          "name": "title",
          "type": "string"
        },
        {
          "internalType": "string",
          "name": "description",
          "type": "string"
        },
        {
          "internalType": "uint256",
          "name": "target",
          "type": "uint256"
        },
        {
          "internalType": "uint256",
          "name": "deadline",
          "type": "uint256"
        },
        {
          "internalType": "uint256",
          "name": "amountCollected",
          "type": "uint256"
        }
      ],
      "stateMutability": "view",
      "type": "function"
    },
    {
      "inputs": [
        {
          "internalType": "string",
          "name": "_title",
          "type": "string"
        },
        {
          "internalType": "string",
          "name": "_description",
          "type": "string"
        },
        {
          "internalType": "uint256",
          "name": "_target",
          "type": "uint256"
        },
        {
          "internalType": "uint256",
          "name": "_deadline",
          "type": "uint256"
        }
      ],
      "name": "createCampaign",
      "outputs": [],
      "stateMutability": "nonpayable",
      "type": "function"
    },
    {
      "inputs": [
        {
          "internalType": "uint256",
          "name": "_campaignId",
          "type": "uint256"
        }
      ],
      "name": "donate",
      "outputs": [],
      "stateMutability": "payable",
      "type": "function"
    },
    {
      "inputs": [
        {
          "internalType": "uint256",
          "name": "_campaignId",
          "type": "uint256"
        }
      ],
      "name": "getCampaign",
      "outputs": [
        {
          "internalType": "address",
          "name": "owner",
          "type": "address"
        },
        {
          "internalType": "string",
          "name": "title",
          "type": "string"
        },
        {
          "internalType": "string",
          "name": "description",
          "type": "string"
        },
        {
          "internalType": "uint256",
          "name": "target",
          "type": "uint256"
        },
        {
          "internalType": "uint256",
          "name": "deadline",
          "type": "uint256"
        },
        {
          "internalType": "uint256",
          "name": "amountCollected",
          "type": "uint256"
        },
        {
          "internalType": "address[]",
          "name": "donors",
          "type": "address[]"
        }
      ],
      "stateMutability": "view",
      "type": "function"
    },
    {
      "inputs": [
        {
          "internalType": "uint256",
          "name": "_campaignId",
          "type": "uint256"
        }
      ],
      "name": "withdrawFunds",
      "outputs": [],
      "stateMutability": "nonpayable",
      "type": "function"
    }
  ],
  "bytecode": "0x6080604052348015600f57600080fd5b506114948061001f6000396000f3fe6080604052600436106100555760003560e01c8063141961bc1461005a578063155dd5ee1461009c5780635598f8cc146100c55780637274e30d14610108578063a318f26914610133578063f14faf6f1461015c575b600080fd5b34801561006657600080fd5b50610081600480360381019061007c919061097b565b610178565b60405161009396959493929190610a88565b60405180910390f35b3480156100a857600080fd5b506100c360048036038101906100be919061097b565b6102e4565b005b3480156100d157600080fd5b506100ec60048036038101906100e7919061097b565b610423565b6040516100ff9796959493929190610bb5565b60405180910390f35b34801561011457600080fd5b5061011d610640565b60405161012a9190610c39565b60405180910390f35b34801561013f57600080fd5b5061015a60048036038101906101559190610d89565b610646565b005b6101766004803603810190610171919061097b565b610778565b005b60016020528060005260406000206000915090508060000160009054906101000a900473ffffffffffffffffffffffffffffffffffffffff16908060010180546101c190610e57565b80601f01602080910402602001604051908101604052809291908181526020018280546101ed90610e57565b801561023a5780601f1061020f5761010080835404028352916020019161023a565b820191906000526020600020905b81548152906001019060200180831161021d57829003601f168201915b50505050509080600201805461024f90610e57565b80601f016020809104026020016040519081016040528092919081815260200182805461027b90610e57565b80156102c85780601f1061029d576101008083540402835291602001916102c8565b820191906000526020600020905b8154815290600101906020018083116102ab57829003601f168201915b5050505050908060030154908060040154908060050154905086565b60006001600083815260200190815260200160002090508060000160009054906101000a900473ffffffffffffffffffffffffffffffffffffffff1673ffffffffffffffffffffffffffffffffffffffff163373ffffffffffffffffffffffffffffffffffffffff161461038d576040517f08c379a000000000000000000000000000000000000000000000000000000000815260040161038490610ed4565b60405180910390fd5b80600401544210156103d4576040517f08c379a00000000000000000000000000000000000000000000000000000000081526004016103cb90610f40565b60405180910390fd5b3373ffffffffffffffffffffffffffffffffffffffff166108fc82600501549081150290604051600060405180830381858888f1935050505015801561041e573d6000803e3d6000fd5b505050565b6000606080600080600060606000600160008a815260200190815260200160002090508060000160009054906101000a900473ffffffffffffffffffffffffffffffffffffffff1681600101826002018360030154846004015485600501548660060185805461049290610e57565b80601f01602080910402602001604051908101604052809291908181526020018280546104be90610e57565b801561050b5780601f106104e05761010080835404028352916020019161050b565b820191906000526020600020905b8154815290600101906020018083116104ee57829003601f168201915b5050505050955084805461051e90610e57565b80601f016020809104026020016040519081016040528092919081815260200182805461054a90610e57565b80156105975780601f1061056c57610100808354040283529160200191610597565b820191906000526020600020905b81548152906001019060200180831161057a57829003601f168201915b505050505094508080548060200260200160405190810160405280929190818152602001828054801561061f57602002820191906000526020600020905b8160009054906101000a900473ffffffffffffffffffffffffffffffffffffffff1673ffffffffffffffffffffffffffffffffffffffff16815260200190600101908083116105d5575b50505050509050975097509750975097509750975050919395979092949650565b60005481565b428111610688576040517f08c379a000000000000000000000000000000000000000000000000000000000815260040161067f90610fac565b60405180910390fd5b60008081548092919061069a90610ffb565b9190505550600060016000805481526020019081526020016000209050338160000160006101000a81548173ffffffffffffffffffffffffffffffffffffffff021916908373ffffffffffffffffffffffffffffffffffffffff1602179055508481600101908161070b91906111ef565b508381600201908161071d91906111ef565b508281600301819055508181600401819055507fdc26653af5b99b2da33e2ad69ee6600d9aeccc82b034501db4338309615ca238600054338786866040516107699594939291906112c1565b60405180910390a15050505050565b6000548111156107bd576040517f08c379a00000000000000000000000000000000000000000000000000000000081526004016107b490611367565b60405180910390fd5b60006001600083815260200190815260200160002090508060040154421061081a576040517f08c379a0000000000000000000000000000000000000000000000000000000008152600401610811906113d3565b60405180910390fd5b3481600501600082825461082e91906113f3565b9250508190555080600601339080600181540180825580915050600190039060005260206000200160009091909190916101000a81548173ffffffffffffffffffffffffffffffffffffffff021916908373ffffffffffffffffffffffffffffffffffffffff160217905550348160070160003373ffffffffffffffffffffffffffffffffffffffff1673ffffffffffffffffffffffffffffffffffffffff16815260200190815260200160002060008282546108eb91906113f3565b925050819055507f0b5b4c52969ff7329ecf7ee536409fda87812b15a8622bc6e8cdeab3aee14a2682333460405161092593929190611427565b60405180910390a15050565b6000604051905090565b600080fd5b600080fd5b6000819050919050565b61095881610945565b811461096357600080fd5b50565b6000813590506109758161094f565b92915050565b6000602082840312156109915761099061093b565b5b600061099f84828501610966565b91505092915050565b600073ffffffffffffffffffffffffffffffffffffffff82169050919050565b60006109d3826109a8565b9050919050565b6109e3816109c8565b82525050565b600081519050919050565b600082825260208201905092915050565b60005b83811015610a23578082015181840152602081019050610a08565b60008484015250505050565b6000601f19601f8301169050919050565b6000610a4b826109e9565b610a5581856109f4565b9350610a65818560208601610a05565b610a6e81610a2f565b840191505092915050565b610a8281610945565b82525050565b600060c082019050610a9d60008301896109da565b8181036020830152610aaf8188610a40565b90508181036040830152610ac38187610a40565b9050610ad26060830186610a79565b610adf6080830185610a79565b610aec60a0830184610a79565b979650505050505050565b600081519050919050565b600082825260208201905092915050565b6000819050602082019050919050565b610b2c816109c8565b82525050565b6000610b3e8383610b23565b60208301905092915050565b6000602082019050919050565b6000610b6282610af7565b610b6c8185610b02565b9350610b7783610b13565b8060005b83811015610ba8578151610b8f8882610b32565b9750610b9a83610b4a565b925050600181019050610b7b565b5085935050505092915050565b600060e082019050610bca600083018a6109da565b8181036020830152610bdc8189610a40565b90508181036040830152610bf08188610a40565b9050610bff6060830187610a79565b610c0c6080830186610a79565b610c1960a0830185610a79565b81810360c0830152610c2b8184610b57565b905098975050505050505050565b6000602082019050610c4e6000830184610a79565b92915050565b600080fd5b600080fd5b7f4e487b7100000000000000000000000000000000000000000000000000000000600052604160045260246000fd5b610c9682610a2f565b810181811067ffffffffffffffff82111715610cb557610cb4610c5e565b5b80604052505050565b6000610cc8610931565b9050610cd48282610c8d565b919050565b600067ffffffffffffffff821115610cf457610cf3610c5e565b5b610cfd82610a2f565b9050602081019050919050565b82818337600083830152505050565b6000610d2c610d2784610cd9565b610cbe565b905082815260208101848484011115610d4857610d47610c59565b5b610d53848285610d0a565b509392505050565b600082601f830112610d7057610d6f610c54565b5b8135610d80848260208601610d19565b91505092915050565b60008060008060808587031215610da357610da261093b565b5b600085013567ffffffffffffffff811115610dc157610dc0610940565b5b610dcd87828801610d5b565b945050602085013567ffffffffffffffff811115610dee57610ded610940565b5b610dfa87828801610d5b565b9350506040610e0b87828801610966565b9250506060610e1c87828801610966565b91505092959194509250565b7f4e487b7100000000000000000000000000000000000000000000000000000000600052602260045260246000fd5b60006002820490506001821680610e6f57607f821691505b602082108103610e8257610e81610e28565b5b50919050565b7f4f6e6c792063616d706169676e206f776e65722063616e207769746864726177600082015250565b6000610ebe6020836109f4565b9150610ec982610e88565b602082019050919050565b60006020820190508181036000830152610eed81610eb1565b9050919050565b7f43616e6e6f74207769746864726177206265666f726520646561646c696e6500600082015250565b6000610f2a601f836109f4565b9150610f3582610ef4565b602082019050919050565b60006020820190508181036000830152610f5981610f1d565b9050919050565b7f446561646c696e65206d75737420626520696e20667574757265000000000000600082015250565b6000610f96601a836109f4565b9150610fa182610f60565b602082019050919050565b60006020820190508181036000830152610fc581610f89565b9050919050565b7f4e487b7100000000000000000000000000000000000000000000000000000000600052601160045260246000fd5b600061100682610945565b91507fffffffffffffffffffffffffffffffffffffffffffffffffffffffffffffffff820361103857611037610fcc565b5b600182019050919050565b60008190508160005260206000209050919050565b60006020601f8301049050919050565b600082821b905092915050565b6000600883026110a57fffffffffffffffffffffffffffffffffffffffffffffffffffffffffffffffff82611068565b6110af8683611068565b95508019841693508086168417925050509392505050565b6000819050919050565b60006110ec6110e76110e284610945565b6110c7565b610945565b9050919050565b6000819050919050565b611106836110d1565b61111a611112826110f3565b848454611075565b825550505050565b600090565b61112f611122565b61113a8184846110fd565b505050565b5b8181101561115e57611153600082611127565b600181019050611140565b5050565b601f8211156111a35761117481611043565b61117d84611058565b8101602085101561118c578190505b6111a061119885611058565b83018261113f565b50505b505050565b600082821c905092915050565b60006111c6600019846008026111a8565b1980831691505092915050565b60006111df83836111b5565b9150826002028217905092915050565b6111f8826109e9565b67ffffffffffffffff81111561121157611210610c5e565b5b61121b8254610e57565b611226828285611162565b600060209050601f8311600181146112595760008415611247578287015190505b61125185826111d3565b8655506112b9565b601f19841661126786611043565b60005b8281101561128f5784890151825560018201915060208501945060208101905061126a565b868310156112ac57848901516112a8601f8916826111b5565b8355505b6001600288020188555050505b505050505050565b600060a0820190506112d66000830188610a79565b6112e360208301876109da565b81810360408301526112f58186610a40565b90506113046060830185610a79565b6113116080830184610a79565b9695505050505050565b7f496e76616c69642043616d706169676e20496400000000000000000000000000600082015250565b60006113516013836109f4565b915061135c8261131b565b602082019050919050565b6000602082019050818103600083015261138081611344565b9050919050565b7f43616d706169676e2068617320656e6465640000000000000000000000000000600082015250565b60006113bd6012836109f4565b91506113c882611387565b602082019050919050565b600060208201905081810360008301526113ec816113b0565b9050919050565b60006113fe82610945565b915061140983610945565b925082820190508082111561142157611420610fcc565b5b92915050565b600060608201905061143c6000830186610a79565b61144960208301856109da565b6114566040830184610a79565b94935050505056fea26469706673582212206b1d46d08e161e5ba0f9bca2ff2ed7f06f266ee96bfdd95d62fd8d860a28aa0364736f6c634300081c0033",
  "linkReferences": {},
  "deployedLinkReferences": {}
}